:100000000C9434000C9449000C9449000C94490061
:100010000C9449000C9449000C9449000C9449003C
:100020000C9449000C9449000C9449000C9449002C
:100030000C9449000C9449000C9449000C9449001C
:100040000C9449000C9449000C9449000C9449000C
:100050000C9449000C9449000C9449000C944900FC
:100060000C9449000C94490011241FBECFEFD8E036
:10007000DEBFCDBF11E0A0E0B1E0E8E9F4E002C0EE
:1000800005900D92AE31B107D9F70E9473000C9420
:100090004A020C94000085B95E985D9A87E893E166
:1000A0000197F1F700C000008BB1807C8BB915B8C7
:1000B000089585B95E9A5D9A87E893E10197F1F713
:1000C00000C000008BB1807C8BB915B80895CF9328
:1000D000DF93EC01899118161CF40E945900FACFA5
:1000E000DF91CF910895CF93DF9300D01F92CDB7CA
:1000F000DEB78FEF84B98AB983ED90E30197F1F70A
:1001000000C0000080917C00806C80937C00809116
:100110007A00876A80937A0081E00E944B0083ED29
:1001200090E30197F1F700C0000088E30E944B00C4
:1001300083ED90E30197F1F700C000008FE00E948B
:100140004B0083ED90E30197F1F700C00000809130
:100150007A00806480937A00009178001091790091
:1001600080E091E00E94670080EC0E944B008DE0EF
:1001700091E00E94670088EC0E944B00B80180E08B
:1001800090E00E94870120E030E048E051E40E94C6
:10019000DF000E945101DC01CB014AE0BE016F5F2C
:1001A0007F4F0E941502CE0101960E94670087E1F1
:1001B00091E00E94670080E80E944B00CDCF0E9432
:1001C000F3000C94DB010E94D40158F00E94CD0191
:1001D00040F029F45F3F29F00C94C40151110C94B4
:1001E0000F020C94CA010E94EC0168F39923B1F349
:1001F000552391F3951B550BBB27AA27621773074D
:10020000840738F09F5F5F4F220F331F441FAA1FE0
:10021000A9F335D00E2E3AF0E0E832D0915050409C
:10022000E695001CCAF72BD0FE2F29D0660F771F4A
:10023000881FBB1F261737074807AB07B0E809F030
:10024000BB0B802DBF01FF2793585F4F3AF09E3FB5
:10025000510578F00C94C4010C940F025F3FE4F355
:10026000983ED4F3869577956795B795F7959F5FF8
:10027000C9F7880F911D9695879597F90895E1E044
:10028000660F771F881FBB1F621773078407BA07A3
:1002900020F0621B730B840BBA0BEE1F88F7E095FE
:1002A00008950E9458016894B1110C940F020895AA
:1002B0000E94F40188F09F5798F0B92F9927B75101
:1002C000B0F0E1F0660F771F881F991F1AF0BA95FA
:1002D000C9F714C0B13091F00E940E02B1E0089548
:1002E0000C940E02672F782F8827B85F39F0B93F3A
:1002F000CCF3869577956795B395D9F73EF49095AD
:100300008095709561957F4F8F4F9F4F0895E8942A
:1003100009C097FB3EF490958095709561957F4F4D
:100320008F4F9F4F9923A9F0F92F96E9BB279395FB
:10033000F695879577956795B795F111F8CFFAF40B
:10034000BB0F11F460FF1BC06F5F7F4F8F4F9F4F3C
:1003500016C0882311F096E911C0772321F09EE89A
:10036000872F762F05C0662371F096E8862F70E000
:1003700060E02AF09A95660F771F881FDAF7880FDA
:100380009695879597F9089597F99F6780E870E0AB
:1003900060E008959FEF80EC089500240A941616FB
:1003A000170618060906089500240A941216130663
:1003B000140605060895092E0394000C11F48823F1
:1003C00052F0BB0F40F4BF2B11F460FF04C06F5F0D
:1003D0007F4F8F4F9F4F089557FD9058440F551FE3
:1003E00059F05F3F71F04795880F97FB991F61F0B7
:1003F0009F3F79F087950895121613061406551F2E
:10040000F2CF4695F1DF08C0161617061806991F99
:10041000F1CF86957105610508940895E894BB278E
:1004200066277727CB0197F90895BB274A3031F427
:10043000992322F4BDE2909581959F4F0C9421025F
:10044000BB27FB015527AA27880F991FAA1FA417AE
:1004500010F0A41B83955051B9F7A05DAA3308F0A2
:10046000A95DA193009779F7B111B1931192CB01D6
:100470000C943A02DC01FC01672F71917723E1F7BC
:10048000329704C07C916D9370836291AE17BF0761
:08049000C8F30895F894FFCFB2
:10049800456E65726779204D6574657200506F7797
:0E04A80065722877293D0020202020202000AA
:00000001FF
